{
  "contractName": "HelloWorldContract",
  "abi": [
    {
      "inputs": [],
      "stateMutability": "nonpayable",
      "type": "constructor"
    },
    {
      "inputs": [],
      "name": "funds",
      "outputs": [
        {
          "internalType": "uint256",
          "name": "",
          "type": "uint256"
        }
      ],
      "stateMutability": "view",
      "type": "function",
      "constant": true
    },
    {
      "inputs": [],
      "name": "owner",
      "outputs": [
        {
          "internalType": "address",
          "name": "",
          "type": "address"
        }
      ],
      "stateMutability": "view",
      "type": "function",
      "constant": true
    },
    {
      "stateMutability": "payable",
      "type": "receive",
      "payable": true
    },
    {
      "inputs": [],
      "name": "getMessage",
      "outputs": [
        {
          "internalType": "string",
          "name": "",
          "type": "string"
        }
      ],
      "stateMutability": "pure",
      "type": "function",
      "constant": true
    },
    {
      "inputs": [],
      "name": "sayHello",
      "outputs": [
        {
          "internalType": "string",
          "name": "",
          "type": "string"
        }
      ],
      "stateMutability": "view",
      "type": "function",
      "constant": true
    }
  ],
  "bytecode": "0x60806040526103e860015534801561001657600080fd5b50336000806101000a81548173ffffffffffffffffffffffffffffffffffffffff021916908373ffffffffffffffffffffffffffffffffffffffff1602179055506104de806100666000396000f3fe6080604052600436106100435760003560e01c80638da5cb5b1461004f578063c89f2ce41461007a578063ce6d41de146100a5578063ef5fb05b146100d05761004a565b3661004a57005b600080fd5b34801561005b57600080fd5b506100646100fb565b6040516100719190610224565b60405180910390f35b34801561008657600080fd5b5061008f61011f565b60405161009c9190610258565b60405180910390f35b3480156100b157600080fd5b506100ba610125565b6040516100c79190610303565b60405180910390f35b3480156100dc57600080fd5b506100e5610162565b6040516100f29190610303565b60405180910390f35b60008054906101000a900473ffffffffffffffffffffffffffffffffffffffff1681565b60015481565b60606040518060400160405280600b81526020017f48656c6c6f20776f726c64000000000000000000000000000000000000000000815250905090565b606060003073ffffffffffffffffffffffffffffffffffffffff1663ce6d41de6040518163ffffffff1660e01b8152600401600060405180830381865afa1580156101b1573d6000803e3d6000fd5b505050506040513d6000823e3d601f19601f820116820180604052508101906101da919061045f565b90508091505090565b600073ffffffffffffffffffffffffffffffffffffffff82169050919050565b600061020e826101e3565b9050919050565b61021e81610203565b82525050565b60006020820190506102396000830184610215565b92915050565b6000819050919050565b6102528161023f565b82525050565b600060208201905061026d6000830184610249565b92915050565b600081519050919050565b600082825260208201905092915050565b60005b838110156102ad578082015181840152602081019050610292565b60008484015250505050565b6000601f19601f8301169050919050565b60006102d582610273565b6102df818561027e565b93506102ef81856020860161028f565b6102f8816102b9565b840191505092915050565b6000602082019050818103600083015261031d81846102ca565b905092915050565b6000604051905090565b600080fd5b600080fd5b600080fd5b600080fd5b7f4e487b7100000000000000000000000000000000000000000000000000000000600052604160045260246000fd5b61037b826102b9565b810181811067ffffffffffffffff8211171561039a57610399610343565b5b80604052505050565b60006103ad610325565b90506103b98282610372565b919050565b600067ffffffffffffffff8211156103d9576103d8610343565b5b6103e2826102b9565b9050602081019050919050565b60006104026103fd846103be565b6103a3565b90508281526020810184848401111561041e5761041d61033e565b5b61042984828561028f565b509392505050565b600082601f83011261044657610445610339565b5b81516104568482602086016103ef565b91505092915050565b6000602082840312156104755761047461032f565b5b600082015167ffffffffffffffff81111561049357610492610334565b5b61049f84828501610431565b9150509291505056fea2646970667358221220e7bd2bc402f93f49fcdf3a4fe7dddb839e509901a6cc880dfc832fe11d81895964736f6c63430008130033",
  "immutableReferences": {},
  "source": "// SPDX-License-Identifier: GPL-3.0\npragma solidity ^0.8.19;\n\ncontract HelloWorldContract {\n    address public owner;\n    uint public funds = 1000;\n\n    constructor() {\n        owner = msg.sender;\n    }\n\n    function getMessage() external pure returns (string memory) {\n        return \"Hello world\";\n    }\n\n    function sayHello() public view returns (string memory) {\n        string memory message = this.getMessage();\n        return message;\n    }\n\n    receive() external payable {}\n}\n",
  "sourcePath": "/Users/vineettiwari/study/capstone/contracts/HelloWorld.sol",
  "compiler": {
    "name": "solc",
    "version": "0.8.19+commit.7dd6d404.Emscripten.clang"
  },
  "schemaVersion": "3.4.13",
  "updatedAt": "2023-03-23T16:45:15.857Z",
  "networkType": "ethereum",
  "devdoc": {
    "kind": "dev",
    "methods": {},
    "version": 1
  },
  "userdoc": {
    "kind": "user",
    "methods": {},
    "version": 1
  }
}