{
  "contractName": "Voting",
  "abi": [
    {
      "inputs": [],
      "stateMutability": "nonpayable",
      "type": "constructor"
    },
    {
      "inputs": [
        {
          "internalType": "uint256",
          "name": "",
          "type": "uint256"
        }
      ],
      "name": "contendersStore",
      "outputs": [
        {
          "internalType": "address",
          "name": "id",
          "type": "address"
        },
        {
          "internalType": "string",
          "name": "name",
          "type": "string"
        },
        {
          "internalType": "uint256",
          "name": "age",
          "type": "uint256"
        }
      ],
      "stateMutability": "view",
      "type": "function",
      "constant": true
    },
    {
      "inputs": [
        {
          "internalType": "uint256",
          "name": "",
          "type": "uint256"
        }
      ],
      "name": "votersStore",
      "outputs": [
        {
          "internalType": "address",
          "name": "id",
          "type": "address"
        },
        {
          "internalType": "string",
          "name": "name",
          "type": "string"
        },
        {
          "internalType": "uint256",
          "name": "age",
          "type": "uint256"
        }
      ],
      "stateMutability": "view",
      "type": "function",
      "constant": true
    },
    {
      "inputs": [
        {
          "internalType": "address",
          "name": "",
          "type": "address"
        }
      ],
      "name": "votes",
      "outputs": [
        {
          "internalType": "uint256",
          "name": "",
          "type": "uint256"
        }
      ],
      "stateMutability": "view",
      "type": "function",
      "constant": true
    },
    {
      "inputs": [
        {
          "internalType": "string",
          "name": "name",
          "type": "string"
        },
        {
          "internalType": "uint256",
          "name": "age",
          "type": "uint256"
        }
      ],
      "name": "registerToContend",
      "outputs": [],
      "stateMutability": "nonpayable",
      "type": "function"
    },
    {
      "inputs": [
        {
          "internalType": "string",
          "name": "name",
          "type": "string"
        },
        {
          "internalType": "uint256",
          "name": "age",
          "type": "uint256"
        }
      ],
      "name": "registerToVote",
      "outputs": [],
      "stateMutability": "nonpayable",
      "type": "function"
    },
    {
      "inputs": [
        {
          "internalType": "address",
          "name": "contenderAdr",
          "type": "address"
        }
      ],
      "name": "vote",
      "outputs": [],
      "stateMutability": "nonpayable",
      "type": "function"
    },
    {
      "inputs": [],
      "name": "stopVoting",
      "outputs": [],
      "stateMutability": "nonpayable",
      "type": "function"
    },
    {
      "inputs": [],
      "name": "getWinner",
      "outputs": [
        {
          "components": [
            {
              "internalType": "address",
              "name": "id",
              "type": "address"
            },
            {
              "internalType": "string",
              "name": "name",
              "type": "string"
            },
            {
              "internalType": "uint256",
              "name": "age",
              "type": "uint256"
            }
          ],
          "internalType": "struct User",
          "name": "",
          "type": "tuple"
        },
        {
          "internalType": "uint256",
          "name": "",
          "type": "uint256"
        }
      ],
      "stateMutability": "view",
      "type": "function",
      "constant": true
    }
  ],
  "bytecode": "0x608060405234801561001057600080fd5b506001600060146101000a81548160ff021916908315150217905550336000806101000a81548173ffffffffffffffffffffffffffffffffffffffff021916908373ffffffffffffffffffffffffffffffffffffffff160217905550611a5c8061007b6000396000f3fe608060405234801561001057600080fd5b50600436106100885760003560e01c80638e7ea5b21161005b5780638e7ea5b214610129578063a501834614610148578063d8bff5a514610164578063fab2f86b1461019457610088565b80631a108ff01461008d57806324dc32e2146100bf5780636dd7d8ea146100db5780637b0cab17146100f7575b600080fd5b6100a760048036038101906100a29190610ea4565b61019e565b6040516100b693929190610fb1565b60405180910390f35b6100d960048036038101906100d49190611054565b610280565b005b6100f560048036038101906100f091906110e0565b610481565b005b610111600480360381019061010c9190610ea4565b6107a9565b60405161012093929190610fb1565b60405180910390f35b61013161088b565b60405161013f9291906111c5565b60405180910390f35b610162600480360381019061015d9190611054565b610b1b565b005b61017e600480360381019061017991906110e0565b610cc4565b60405161018b91906111f5565b60405180910390f35b61019c610cdc565b005b600681815481106101ae57600080fd5b90600052602060002090600302016000915090508060000160009054906101000a900473ffffffffffffffffffffffffffffffffffffffff16908060010180546101f79061123f565b80601f01602080910402602001604051908101604052809291908181526020018280546102239061123f565b80156102705780601f1061024557610100808354040283529160200191610270565b820191906000526020600020905b81548152906001019060200180831161025357829003601f168201915b5050505050908060020154905083565b8060128110156102c5576040517f08c379a00000000000000000000000000000000000000000000000000000000081526004016102bc906112bc565b60405180910390fd5b600660405180606001604052803373ffffffffffffffffffffffffffffffffffffffff16815260200186868080601f016020809104026020016040519081016040528093929190818152602001838380828437600081840152601f19601f82011690508083019250505050505050815260200184815250908060018154018082558091505060019003906000526020600020906003020160009091909190915060008201518160000160006101000a81548173ffffffffffffffffffffffffffffffffffffffff021916908373ffffffffffffffffffffffffffffffffffffffff16021790555060208201518160010190816103c191906114b7565b5060408201518160020155505060016006805490506103e091906115b8565b600460003373ffffffffffffffffffffffffffffffffffffffff1673ffffffffffffffffffffffffffffffffffffffff168152602001908152602001600020819055506000600160003373ffffffffffffffffffffffffffffffffffffffff1673ffffffffffffffffffffffffffffffffffffffff16815260200190815260200160002060006101000a81548160ff02191690831515021790555050505050565b60011515600060149054906101000a900460ff161515146104d7576040517f08c379a00000000000000000000000000000000000000000000000000000000081526004016104ce90611638565b60405180910390fd5b60001515600160003373ffffffffffffffffffffffffffffffffffffffff1673ffffffffffffffffffffffffffffffffffffffff16815260200190815260200160002060009054906101000a900460ff1615151461056a576040517f08c379a0000000000000000000000000000000000000000000000000000000008152600401610561906116a4565b60405180910390fd5b806000600360008373ffffffffffffffffffffffffffffffffffffffff1673ffffffffffffffffffffffffffffffffffffffff16815260200190815260200160002054905060068054905081106105c057600080fd5b6001600260008573ffffffffffffffffffffffffffffffffffffffff1673ffffffffffffffffffffffffffffffffffffffff168152602001908152602001600020600082825461061091906116c4565b92505081905550600754600260008573ffffffffffffffffffffffffffffffffffffffff1673ffffffffffffffffffffffffffffffffffffffff1681526020019081526020016000205411156106f757600260008473ffffffffffffffffffffffffffffffffffffffff1673ffffffffffffffffffffffffffffffffffffffff1681526020019081526020016000205460078190555060405180602001604052808473ffffffffffffffffffffffffffffffffffffffff1673ffffffffffffffffffffffffffffffffffffffff1681525060089060016106f1929190610d86565b506107a4565b600754600260008573ffffffffffffffffffffffffffffffffffffffff1673ffffffffffffffffffffffffffffffffffffffff16815260200190815260200160002054036107a3576008839080600181540180825580915050600190039060005260206000200160009091909190916101000a81548173ffffffffffffffffffffffffffffffffffffffff021916908373ffffffffffffffffffffffffffffffffffffffff1602179055505b5b505050565b600581815481106107b957600080fd5b90600052602060002090600302016000915090508060000160009054906101000a900473ffffffffffffffffffffffffffffffffffffffff16908060010180546108029061123f565b80601f016020809104026020016040519081016040528092919081815260200182805461082e9061123f565b801561087b5780601f106108505761010080835404028352916020019161087b565b820191906000526020600020905b81548152906001019060200180831161085e57829003601f168201915b5050505050908060020154905083565b610893610e10565b600080600880549050036108dc576040517f08c379a00000000000000000000000000000000000000000000000000000000081526004016108d390611744565b60405180910390fd5b600160088054905003610a9b57600060036000600860008154811061090457610903611764565b5b9060005260206000200160009054906101000a900473ffffffffffffffffffffffffffffffffffffffff1673ffffffffffffffffffffffffffffffffffffffff1673ffffffffffffffffffffffffffffffffffffffff168152602001908152602001600020549050600581815481106109805761097f611764565b5b9060005260206000209060030201600754816040518060600160405290816000820160009054906101000a900473ffffffffffffffffffffffffffffffffffffffff1673ffffffffffffffffffffffffffffffffffffffff1673ffffffffffffffffffffffffffffffffffffffff168152602001600182018054610a039061123f565b80601f0160208091040260200160405190810160405280929190818152602001828054610a2f9061123f565b8015610a7c5780601f10610a5157610100808354040283529160200191610a7c565b820191906000526020600020905b815481529060010190602001808311610a5f57829003601f168201915b5050505050815260200160028201548152505091509250925050610b17565b6008604051602001610aad91906118b1565b604051602081830303815290604052604051602001610acc9190611950565b6040516020818303038152906040526040517f08c379a0000000000000000000000000000000000000000000000000000000008152600401610b0e9190611972565b60405180910390fd5b9091565b806012811015610b60576040517f08c379a0000000000000000000000000000000000000000000000000000000008152600401610b57906112bc565b60405180910390fd5b600560405180606001604052803373ffffffffffffffffffffffffffffffffffffffff16815260200186868080601f016020809104026020016040519081016040528093929190818152602001838380828437600081840152601f19601f82011690508083019250505050505050815260200184815250908060018154018082558091505060019003906000526020600020906003020160009091909190915060008201518160000160006101000a81548173ffffffffffffffffffffffffffffffffffffffff021916908373ffffffffffffffffffffffffffffffffffffffff1602179055506020820151816001019081610c5c91906114b7565b506040820151816002015550506001600580549050610c7b91906115b8565b600360003373ffffffffffffffffffffffffffffffffffffffff1673ffffffffffffffffffffffffffffffffffffffff1681526020019081526020016000208190555050505050565b60026020528060005260406000206000915090505481565b3373ffffffffffffffffffffffffffffffffffffffff1660008054906101000a900473ffffffffffffffffffffffffffffffffffffffff1673ffffffffffffffffffffffffffffffffffffffff1614610d6a576040517f08c379a0000000000000000000000000000000000000000000000000000000008152600401610d6190611a06565b60405180910390fd5b60008060146101000a81548160ff021916908315150217905550565b828054828255906000526020600020908101928215610dff579160200282015b82811115610dfe5782518260006101000a81548173ffffffffffffffffffffffffffffffffffffffff021916908373ffffffffffffffffffffffffffffffffffffffff16021790555091602001919060010190610da6565b5b509050610e0c9190610e47565b5090565b6040518060600160405280600073ffffffffffffffffffffffffffffffffffffffff16815260200160608152602001600081525090565b5b80821115610e60576000816000905550600101610e48565b5090565b600080fd5b600080fd5b6000819050919050565b610e8181610e6e565b8114610e8c57600080fd5b50565b600081359050610e9e81610e78565b92915050565b600060208284031215610eba57610eb9610e64565b5b6000610ec884828501610e8f565b91505092915050565b600073ffffffffffffffffffffffffffffffffffffffff82169050919050565b6000610efc82610ed1565b9050919050565b610f0c81610ef1565b82525050565b600081519050919050565b600082825260208201905092915050565b60005b83811015610f4c578082015181840152602081019050610f31565b60008484015250505050565b6000601f19601f8301169050919050565b6000610f7482610f12565b610f7e8185610f1d565b9350610f8e818560208601610f2e565b610f9781610f58565b840191505092915050565b610fab81610e6e565b82525050565b6000606082019050610fc66000830186610f03565b8181036020830152610fd88185610f69565b9050610fe76040830184610fa2565b949350505050565b600080fd5b600080fd5b600080fd5b60008083601f84011261101457611013610fef565b5b8235905067ffffffffffffffff81111561103157611030610ff4565b5b60208301915083600182028301111561104d5761104c610ff9565b5b9250929050565b60008060006040848603121561106d5761106c610e64565b5b600084013567ffffffffffffffff81111561108b5761108a610e69565b5b61109786828701610ffe565b935093505060206110aa86828701610e8f565b9150509250925092565b6110bd81610ef1565b81146110c857600080fd5b50565b6000813590506110da816110b4565b92915050565b6000602082840312156110f6576110f5610e64565b5b6000611104848285016110cb565b91505092915050565b61111681610ef1565b82525050565b600082825260208201905092915050565b600061113882610f12565b611142818561111c565b9350611152818560208601610f2e565b61115b81610f58565b840191505092915050565b61116f81610e6e565b82525050565b600060608301600083015161118d600086018261110d565b50602083015184820360208601526111a5828261112d565b91505060408301516111ba6040860182611166565b508091505092915050565b600060408201905081810360008301526111df8185611175565b90506111ee6020830184610fa2565b9392505050565b600060208201905061120a6000830184610fa2565b92915050565b7f4e487b7100000000000000000000000000000000000000000000000000000000600052602260045260246000fd5b6000600282049050600182168061125757607f821691505b60208210810361126a57611269611210565b5b50919050565b7f416765206d757374206265206174206c65617374203138000000000000000000600082015250565b60006112a6601783610f1d565b91506112b182611270565b602082019050919050565b600060208201905081810360008301526112d581611299565b9050919050565b7f4e487b7100000000000000000000000000000000000000000000000000000000600052604160045260246000fd5b60008190508160005260206000209050919050565b60006020601f8301049050919050565b600082821b905092915050565b60006008830261136d7fffffffffffffffffffffffffffffffffffffffffffffffffffffffffffffffff82611330565b6113778683611330565b95508019841693508086168417925050509392505050565b6000819050919050565b60006113b46113af6113aa84610e6e565b61138f565b610e6e565b9050919050565b6000819050919050565b6113ce83611399565b6113e26113da826113bb565b84845461133d565b825550505050565b600090565b6113f76113ea565b6114028184846113c5565b505050565b5b818110156114265761141b6000826113ef565b600181019050611408565b5050565b601f82111561146b5761143c8161130b565b61144584611320565b81016020851015611454578190505b61146861146085611320565b830182611407565b50505b505050565b600082821c905092915050565b600061148e60001984600802611470565b1980831691505092915050565b60006114a7838361147d565b9150826002028217905092915050565b6114c082610f12565b67ffffffffffffffff8111156114d9576114d86112dc565b5b6114e3825461123f565b6114ee82828561142a565b600060209050601f831160018114611521576000841561150f578287015190505b611519858261149b565b865550611581565b601f19841661152f8661130b565b60005b8281101561155757848901518255600182019150602085019450602081019050611532565b868310156115745784890151611570601f89168261147d565b8355505b6001600288020188555050505b505050505050565b7f4e487b7100000000000000000000000000000000000000000000000000000000600052601160045260246000fd5b60006115c382610e6e565b91506115ce83610e6e565b92508282039050818111156115e6576115e5611589565b5b92915050565b7f566f74696e6720686173206265656e20636c6f73656400000000000000000000600082015250565b6000611622601683610f1d565b915061162d826115ec565b602082019050919050565b6000602082019050818103600083015261165181611615565b9050919050565b7f416c726561647920766f74656400000000000000000000000000000000000000600082015250565b600061168e600d83610f1d565b915061169982611658565b602082019050919050565b600060208201905081810360008301526116bd81611681565b9050919050565b60006116cf82610e6e565b91506116da83610e6e565b92508282019050808211156116f2576116f1611589565b5b92915050565b7f57696e6e65722064617461206e6f7420666f756e640000000000000000000000600082015250565b600061172e601583610f1d565b9150611739826116f8565b602082019050919050565b6000602082019050818103600083015261175d81611721565b9050919050565b7f4e487b7100000000000000000000000000000000000000000000000000000000600052603260045260246000fd5b600081549050919050565b600081905092915050565b60008190508160005260206000209050919050565b6117c781610ef1565b82525050565b60006117d983836117be565b60208301905092915050565b60008160001c9050919050565b600073ffffffffffffffffffffffffffffffffffffffff82169050919050565b6000611825611820836117e5565b6117f2565b9050919050565b60006118388254611812565b9050919050565b6000600182019050919050565b600061185782611793565b611861818561179e565b935061186c836117a9565b8060005b838110156118a4576118818261182c565b61188b88826117cd565b97506118968361183f565b925050600181019050611870565b5085935050505092915050565b60006118bd828461184c565b915081905092915050565b600081905092915050565b7f546965206265747765656e200000000000000000000000000000000000000000600082015250565b6000611909600c836118c8565b9150611914826118d3565b600c82019050919050565b600061192a82610f12565b61193481856118c8565b9350611944818560208601610f2e565b80840191505092915050565b600061195b826118fc565b9150611967828461191f565b915081905092915050565b6000602082019050818103600083015261198c8184610f69565b905092915050565b7f4f6e6c79206f776e65722063616e20706572666f726d2074686973206f70657260008201527f6174696f6e000000000000000000000000000000000000000000000000000000602082015250565b60006119f0602583610f1d565b91506119fb82611994565b604082019050919050565b60006020820190508181036000830152611a1f816119e3565b905091905056fea264697066735822122022c23337d8fa28e57669feb802734db418023e996295864582c4ee8c9d690b2d64736f6c63430008130033",
  "immutableReferences": {},
  "source": "// SPDX-License-Identifier: GPL-3.0\npragma solidity ^0.8.19;\n\nstruct User {\n    address id;\n    string name;\n    uint age;\n}\n\ncontract Voting {\n    address owner;\n    bool isVotingActive;\n\n    mapping(address => bool) voted;\n    mapping(address => uint) public votes;\n\n    mapping(address => uint) private contendersIdx;\n    mapping(address => uint) private votersIdx;\n\n    User[] public contendersStore;\n    User[] public votersStore;\n\n    uint maxVotesTillNow;\n    address[] winners;\n\n    constructor() {\n        isVotingActive = true;\n        owner = msg.sender;\n    }\n\n    modifier onlyOwner() {\n        require(owner == msg.sender, \"Only owner can perform this operation\");\n        _;\n    }\n\n    modifier above18(uint age) {\n        require(age >= 18, \"Age must be at least 18\");\n        _;\n    }\n\n    modifier checkIfVotingActive() {\n        require(isVotingActive == true, \"Voting has been closed\");\n        _;\n    }\n\n    modifier checkIfContenderParticipating(address contenderAdr) {\n        uint idx = contendersIdx[contenderAdr];\n        require(idx < votersStore.length);\n        _;\n    }\n\n    modifier checkIfVoted() {\n        require(voted[msg.sender] == false, \"Already voted\");\n        _;\n    }\n\n    function registerToContend(\n        string calldata name,\n        uint age\n    ) public above18(age) {\n        contendersStore.push(User(msg.sender, name, age));\n        contendersIdx[msg.sender] = contendersStore.length - 1;\n    }\n\n    function registerToVote(\n        string calldata name,\n        uint age\n    ) public above18(age) {\n        votersStore.push(User(msg.sender, name, age));\n        votersIdx[msg.sender] = votersStore.length - 1;\n        voted[msg.sender] = false;\n    }\n\n    function vote(\n        address contenderAdr\n    )\n        public\n        checkIfVotingActive\n        checkIfVoted\n        checkIfContenderParticipating(contenderAdr)\n    {\n        votes[contenderAdr] += 1;\n\n        if (votes[contenderAdr] > maxVotesTillNow) {\n            maxVotesTillNow = votes[contenderAdr];\n            winners = [contenderAdr];\n        } else if (votes[contenderAdr] == maxVotesTillNow) {\n            winners.push(contenderAdr);\n        }\n    }\n\n    function stopVoting() public onlyOwner {\n        isVotingActive = false;\n    }\n\n    function getWinner() public view returns (User memory, uint) {\n        if (winners.length == 0) {\n            revert(\"Winner data not found\");\n        }\n\n        if (winners.length == 1) {\n            uint winnerIdx = contendersIdx[winners[0]];\n            return (contendersStore[winnerIdx], maxVotesTillNow);\n        }\n\n        revert(\n            string(\n                abi.encodePacked(\n                    \"Tie between \",\n                    string(abi.encodePacked(winners))\n                )\n            )\n        );\n    }\n\n    function compare(\n        string memory str1,\n        string memory str2\n    ) private pure returns (bool) {\n        if (bytes(str1).length != bytes(str2).length) {\n            return false;\n        }\n        return\n            keccak256(abi.encodePacked(str1)) ==\n            keccak256(abi.encodePacked(str2));\n    }\n}\n",
  "sourcePath": "/Users/vineettiwari/study/capstone/contracts/VotingContract.sol",
  "compiler": {
    "name": "solc",
    "version": "0.8.19+commit.7dd6d404.Emscripten.clang"
  },
  "schemaVersion": "3.4.13",
  "updatedAt": "2023-03-23T16:45:15.936Z",
  "networkType": "ethereum",
  "devdoc": {
    "kind": "dev",
    "methods": {},
    "version": 1
  },
  "userdoc": {
    "kind": "user",
    "methods": {},
    "version": 1
  }
}